{
  "_format": "hh-sol-artifact-1",
  "contractName": "Transactions",
  "sourceName": "contracts/Transactions.sol",
  "abi": [
    {
      "anonymous": false,
      "inputs": [
        {
          "indexed": false,
          "internalType": "address",
          "name": "from",
          "type": "address"
        },
        {
          "indexed": false,
          "internalType": "address",
          "name": "receiver",
          "type": "address"
        },
        {
          "indexed": false,
          "internalType": "uint256",
          "name": "amount",
          "type": "uint256"
        },
        {
          "indexed": false,
          "internalType": "string",
          "name": "message",
          "type": "string"
        },
        {
          "indexed": false,
          "internalType": "string",
          "name": "keyword",
          "type": "string"
        },
        {
          "indexed": false,
          "internalType": "uint256",
          "name": "timestamp",
          "type": "uint256"
        }
      ],
      "name": "Transfer",
      "type": "event"
    },
    {
      "inputs": [
        {
          "internalType": "address payable",
          "name": "receiver",
          "type": "address"
        },
        {
          "internalType": "uint256",
          "name": "amount",
          "type": "uint256"
        },
        {
          "internalType": "string",
          "name": "message",
          "type": "string"
        },
        {
          "internalType": "string",
          "name": "keyword",
          "type": "string"
        }
      ],
      "name": "addToBlockChain",
      "outputs": [],
      "stateMutability": "nonpayable",
      "type": "function"
    },
    {
      "inputs": [],
      "name": "getAllTransactions",
      "outputs": [
        {
          "components": [
            {
              "internalType": "address",
              "name": "sender",
              "type": "address"
            },
            {
              "internalType": "address",
              "name": "receiver",
              "type": "address"
            },
            {
              "internalType": "uint256",
              "name": "amount",
              "type": "uint256"
            },
            {
              "internalType": "string",
              "name": "message",
              "type": "string"
            },
            {
              "internalType": "string",
              "name": "keyword",
              "type": "string"
            },
            {
              "internalType": "uint256",
              "name": "timestamp",
              "type": "uint256"
            }
          ],
          "internalType": "struct Transactions.TransferStruct[]",
          "name": "",
          "type": "tuple[]"
        }
      ],
      "stateMutability": "view",
      "type": "function"
    },
    {
      "inputs": [],
      "name": "getTransactionCount",
      "outputs": [
        {
          "internalType": "uint256",
          "name": "",
          "type": "uint256"
        }
      ],
      "stateMutability": "view",
      "type": "function"
    },
    {
      "inputs": [],
      "name": "transactionCount",
      "outputs": [
        {
          "internalType": "uint256",
          "name": "",
          "type": "uint256"
        }
      ],
      "stateMutability": "view",
      "type": "function"
    }
  ],
  "bytecode": "0x6080604052348015600f57600080fd5b5061082c8061001f6000396000f3fe608060405234801561001057600080fd5b506004361061004c5760003560e01c806327506f53146100515780632e7700f01461006f578063b2da096014610081578063b77bf60014610096575b600080fd5b61005961009f565b6040516100669190610433565b60405180910390f35b6000545b604051908152602001610066565b61009461008f36600461059d565b61025a565b005b61007360005481565b60606001805480602002602001604051908101604052809291908181526020016000905b828210156102515760008481526020908190206040805160c0810182526006860290920180546001600160a01b039081168452600182015416938301939093526002830154908201526003820180549192916060840191906101249061062e565b80601f01602080910402602001604051908101604052809291908181526020018280546101509061062e565b801561019d5780601f106101725761010080835404028352916020019161019d565b820191906000526020600020905b81548152906001019060200180831161018057829003601f168201915b505050505081526020016004820180546101b69061062e565b80601f01602080910402602001604051908101604052809291908181526020018280546101e29061062e565b801561022f5780601f106102045761010080835404028352916020019161022f565b820191906000526020600020905b81548152906001019060200180831161021257829003601f168201915b50505050508152602001600582015481525050815260200190600101906100c3565b50505050905090565b600160008082825461026c9190610668565b90915550506040805160c0810182523381526001600160a01b038681166020830190815292820186815260608301868152608084018690524260a0850152600180548082018255600091909152845160069091027fb10e2d527612073b26eecdfd717e6a320cf44b4afac2b0732d9fcbe2b7fa0cf6810180549286166001600160a01b031993841617815596517fb10e2d527612073b26eecdfd717e6a320cf44b4afac2b0732d9fcbe2b7fa0cf7820180549190961692169190911790935590517fb10e2d527612073b26eecdfd717e6a320cf44b4afac2b0732d9fcbe2b7fa0cf8830155519192917fb10e2d527612073b26eecdfd717e6a320cf44b4afac2b0732d9fcbe2b7fa0cf99091019061038490826106de565b506080820151600482019061039990826106de565b5060a0820151816005015550507f5e245fe3ab1aa0e8ad77928e6d608e234861c6f4cc61f42cdb647db3f4f3ca463385858585426040516103df9695949392919061079d565b60405180910390a150505050565b6000815180845260005b81811015610413576020818501810151868301820152016103f7565b506000602082860101526020601f19601f83011685010191505092915050565b6000602082016020835280845180835260408501915060408160051b86010192506020860160005b828110156104ec57603f19878603018452815160018060a01b03815116865260018060a01b03602082015116602087015260408101516040870152606081015160c060608801526104af60c08801826103ed565b9050608082015187820360808901526104c882826103ed565b60a0938401519890930197909752509450602093840193919091019060010161045b565b50929695505050505050565b634e487b7160e01b600052604160045260246000fd5b600082601f83011261051f57600080fd5b813567ffffffffffffffff811115610539576105396104f8565b604051601f8201601f19908116603f0116810167ffffffffffffffff81118282101715610568576105686104f8565b60405281815283820160200185101561058057600080fd5b816020850160208301376000918101602001919091529392505050565b600080600080608085870312156105b357600080fd5b84356001600160a01b03811681146105ca57600080fd5b935060208501359250604085013567ffffffffffffffff8111156105ed57600080fd5b6105f98782880161050e565b925050606085013567ffffffffffffffff81111561061657600080fd5b6106228782880161050e565b91505092959194509250565b600181811c9082168061064257607f821691505b60208210810361066257634e487b7160e01b600052602260045260246000fd5b50919050565b8082018082111561068957634e487b7160e01b600052601160045260246000fd5b92915050565b601f8211156106d957806000526020600020601f840160051c810160208510156106b65750805b601f840160051c820191505b818110156106d657600081556001016106c2565b50505b505050565b815167ffffffffffffffff8111156106f8576106f86104f8565b61070c81610706845461062e565b8461068f565b6020601f82116001811461074057600083156107285750848201515b600019600385901b1c1916600184901b1784556106d6565b600084815260208120601f198516915b828110156107705787850151825560209485019460019092019101610750565b508482101561078e5786840151600019600387901b60f8161c191681555b50505050600190811b01905550565b6001600160a01b038781168252861660208201526040810185905260c0606082018190526000906107d0908301866103ed565b82810360808401526107e281866103ed565b9150508260a083015297965050505050505056fea2646970667358221220f503e1da2a3faf9153c2013de32ad329ad4cab8b1356a6fac78089a9627f5cab64736f6c634300081c0033",
  "linkReferences": {},
  "deployedLinkReferences": {}
}